:030000000206787D
:0C067800787FE4F6D8FD75814D0206BFC6
:10070400E4FDFCFBFAC292D29300C29400D29200A0
:10071400EF700EC292D29300D29200C292C2938022
:100724000CC292D29300D29200C292D29300D2927F
:1007340000C292D29390000000ED25E0FDEC33FC62
:10074400D29200C2923093054305018000A3E58252
:100754006408458370E2E4F583F582EAC313FAEB97
:1007640013FB309305430380800000D29200C292B1
:10077400A3E5826408458370E200D294D293D292B6
:04078400AE02AF030F
:01078800224E
:100B520053455420543A3030202020453A3030302A
:100B6200004E4F5720543A30302E3020453A303024
:020B7200300051
:0F0A62008F807F057E00120A71D2917F057E0082
:100A7100D3EF9400EE940040147D0A7C00ED1D70CC
:0D0A8100011CED4C70F7EF1F70E61E80E3C6
:010A8E002245
:08000300C290120A62C29122B0
:100B95007C007D641203047E007F0ACFCDCFCECCCE
:080BA500CE120304EF2430FF1F
:080BAD00D290120A62C29122EB
:10098F00E4FB7F381200037F0C1200037F06120076
:10099F00037F011200037F80120003EBC3941074D6
:1009AF00809480500CEB900B5293FF120BAD0B8089
:1009BF00EA7FC0120003E4FBEBC3941074809480B1
:0E09CF00500CEB900B6393FF120BAD0B80EA04
:0109DD0022F7
:1005CA008E408F418C428D437F86120003AE40AF2E
:1005DA00417C007D0A120BA6AE40AF417C007D0A29
:1005EA00120304ED2430FF120BAD7F8D120003AE0F
:1005FA0042AF437C007D64120BA6AE42AF43120B9E
:10060A0095AE42AF437C007D0A120304ED2430FF0D
:10061A00120BAD7FC61200037C007D64AF03AE02ED
:10062A00120BA67C007D64AF03AE02120B997F2EDB
:10063A00120BADAE02AF037C007D0A120304ED2457
:10064A0030FF120BAD7FCD120003AE46AF477C00E0
:10065A007D64120BA6AE46AF47120B95AE46AF4766
:0E066A007C007D0A120304ED2430FF020BAD6C
:0B0BD200EF1FAC0670011E4C70F622F5
:100A8F00E4FDD2A07F08FE120BD2C2A07F507E00E1
:100A9F00120BD2D2A07F0E7E00120BD2A2A0E43393
:080AAF00FD7F147E00020BD252
:100AB700E4FB7D08EDD39400748094804017C2A0B6
:100AC700EB13FBD2A030A0034303807F047E001208
:070AD7000BD21D80DFAF030D
:010ADE0022F5
:020B2D00AD0712
:100B2F007B08EBD39400748094804016C2A0ED1321
:100B3F0092A07F057E00120BD2D2A0EDC313FD1B36
:020B4F0080E044
:010B51002281
:1008D600E4FAFFFDFCF543F542F541F540120A8FB7
:1008E6007FCC120B2D7F44120B2D120A8F7FCC1258
:1008F6000B2D7FBE120B2D120AB7AA07120AB7AD2F
:1009060007EDFCEAFDE4120231E4FBFA7980783D5A
:100916001201268F438E428D418C40E4FFFE7D20DE
:100926007C41AB43AA42A941A840120126E4FBFA46
:09093600F9783F12003502026A53
:100B74001208D6EF24FBFFEE34FFFEC394005003AB
:100B8400E4FEFFC3EF94E7EE940340047E037FE7A3
:010B9400223E
:060A2200014C00014D0033
:100B0700EF25E0FFEE33AB07FAE4F9F8FF7E107D3F
:100B17000EFC1209DEC3E49FFFE49EAD07F5CB8D03
:050B2700CAD2ADD2CAE4
:010B2C0022A6
:070BDD00C2ADC2CAD2A5227D
:03002B00020026AA
:05002600C2CFB2A532BB
:02086B008D40BE
:10086D00AB07AA06E4F9F8FF7E107D0EFC1209DE37
:10087D008F448E438D428C41AF40E4FCFDFEAB4472
:10088D00AA43A942A841120359E47B64FAF9F8126C
:10089D0003E4AD07AC06C3E5449DFFE5439CAB0700
:1008AD00FAC3740C9DFDE49CFCC3740C9BFBE49A91
:1008BD008C488D49F54A8B4B5389F0438901854806
:0808CD008C85498AD2A9D28C66
:0108D5002200
:070BE400C2A9C28CD2B522A8
:100BB500EF14600A14601024027011020BE47D2802
:0D0BC5007FC87E0002086B120BE4C2B5224F
:03000B0002000EE2
:10000E0030B509854A8C854B8AC2B53285488C85B8
:05001E00498AD2B53251
:100A2800013D00192454656D7065747572653A301E
:0E0A3800302E302020536D6F6B653A30300A3F
:1007FF00AE1BAF1C7C007D64120304EF2430F52E7A
:10080F00AE1BAF1C7C007D641203047E007F0ACFF9
:10081F00CDCFCECCCE120304EF2430F52FAE1BAFCD
:10082F001C7C007D0A120304ED2430F531AE18AFA5
:10083F00197C007D0A120304EF2430F53AAE18AF8D
:10084F00197C007D0A120304ED2430F53B7521005D
:0C085F00752200752324753D19D29922E2
:100ADF0075985053890F438920AB07AA06E4F9F89C
:100AEF007F807E70FDFC1209DEEFF404F58D858D9D
:080AFF008BC2ABD2ACD28E22F7
:0300230002093F90
:10093F00C0E0C083C082C0D075D000C001C002C06B
:10094F0003309805C29885991A309925C299D3E535
:10095F003D9400748094804018AB21AA22A92312E1
:10096F0002EBF599153D74012523F523E43522F5A6
:10097F0022D003D002D001D0D0D082D083D0E032A9
:100A4600C100011F00020F0028020B001402110052
:0B0A56003C020D001E011A34010800D4
:10049A00E4F53EF53FF582F583D2AF120A8F1209D1
:1004AA008F7F807E25120ADF120B748E138F147FC2
:1004BA00011207048E158F16E4F583F582AF82AE1A
:1004CA0083E4FCFD7BE87A80F9F8D31204844003C4
:1004DA00A380EAE4F517C3E5179432748094805038
:1004EA00197F011207048E188F19E519251EF51EAA
:1004FA00E518351DF51D051780DCAE1DAF1E7C0005
:10050A007D321203048E188F19E4F51DF51E120BA5
:10051A00748E1B8F1C7C007D0A120304EFB5141025
:10052A00EEB5130CE51665197004E5156518600D2E
:10053A008E138F148518158519161207FF1207894D
:10054A00E50814602A146036240270578518468517
:10055A001947AB1CAA1BAD0CAC0BAF10AE0F1205A2
:10056A00CA120BDDD2A1D2A2E4FF120BB580347FEE
:10057A00A07E0F120B07C2A1D2A27F01800D7FA01D
:10058A007E0F120B07C2A2D2A17F02120BB58518E9
:10059A0046851947AB1CAA1BAD0EAC0DAF12AE11A6
:1005AA001205CAE4F53EF53FC3E53F9420E53E94C3
:1005BA004E40030204DD053FE53F70EC053E80E84E
:10078900E51A24CF600E146010146012240370134C
:10079900D200800C751F01800A751F028005C200F6
:1007A900E4F51FAE1BAF1C7C007D0A120304C3EFE6
:1007B9009510EE950F500BC3E519950CE518950B9F
:1007C900400330000BD3E51F9400748094804022CD
:1007D900C3EF9512EE95115011C3E519950EE51861
:1007E900950D5006E51F640270047508022275080C
:0607F9000122E4F50822D4
:10002E000202D6E86480F8E933E83360110460F028
:10003E00ED33EC337009E8FCE9FDEAFEEBFF220438
:10004E0060DED3EB9FEA9EE99DE8C2E78CF0C2F733
:10005E0095F0400CE8CCF8E9CDF9EACEFAEBCFFBFF
:10006E001202A185D0F05804700320D5B3E80470B5
:10007E00075002B2D50202E092D5EC0460F7E4CC50
:10008E00C0E0C398F8603B94186008400DD0E0FBC8
:10009E000202B8E4FBFAC9FC8028E830E406E4C9A1
:1000AE00FBE4CAFCE830E305E4C9CACBFCE854071C
:1000BE006010F8C3E913F9EA13FAEB13FBEC13FC27
:1000CE00D8F130F52FC3E49CFCEF9BFFEE9AFEEDCA
:1000DE0099FDD0E0FBEF4E4D4C701222DB03020275
:1000EE00DDEC2CFCEF33FFEE33FEED33FDED30E7B0
:1000FE00EB0202B8EF2BFFEE3AFEED39FDD0E0FB3E
:10010E0050130BBB00030202E0ED13FDEE13FEEFE6
:08011E0013FFEC13FC0202B810
:10012600EC4D6011E8497017ED33EC3304600DE4D3
:10013600FCFFFEFD22E933E8330470F80202D61212
:1001460002A158046009E4CC248150062850090213
:1001560002E02840030202DDC0E0EB4A7044B980A9
:1001660006D0E0FB0202CCEF4E701CBD8008EBFF10
:10017600EAFEE9FD80EBE98DF0A4FEE5F002020F50
:10018600E9CDF9EAFEEBFFEF89F0A4FCE5F0CE89B4
:10019600F0A42EFFE435F0CD89F0A42DFEE435F071
:1001A6008067EF4E7005BD80D780C3EF8BF0A4AC9F
:1001B600F0EE8BF0A42CFCE435F0F8EF8AF0A42CDA
:1001C600E5F038FCE433CB8DF0A42CFCE5F03BF8ED
:1001D600EE8AF0A42CFCE5F038F8E433CF89F0A4DD
:1001E6002CFCE5F038CF3400CE89F0A42FFFE5F0E3
:1001F6003EFEE433C98DF0A42EFEE5F039CD8AF03B
:10020600A42FFFE5F03EFEE43DFD33D0E0FB5007B2
:100216000BBB000F0202E0EC2CFCEF33FFEE33FECB
:06022600ED33FD0202B8F9
:10022C0075F020800E75F010800575F0087D007E4D
:10023C00007F003392D530D503120476EC33401096
:10024C00EF33FFEE33FEED33FDEC33FCD5F0ED2256
:0E025C00E5F0247EA2D513CC92E7CDCEFF2292
:10026A00EDD2E7CD33EC3392D524814006E4FFFE8C
:10027A00FDFC22FCE4CFCECDCC24E0501174FF80EB
:10028A00EDC3CC13CCCD13CDCE13CECF13CF047088
:07029A00F030D5DE0204760E
:1002A100E9D2E7C933E833F892D5EDD2E7CD33ECA3
:0702B10033FC5002B2D5221C
:1002B800EC30E7100FBF000C0EBE00080DBD0004A7
:1002C8000BEB6014A2D5EB13FCED92E7FD2274FF53
:1002D800FCFDFEFF22E480F8A2D574FF13FC7D80AC
:0302E800E480EFC0
:1006840002049AE493A3F8E493A34003F68001F2EE
:1006940008DFF48029E493A3F85407240CC8C33377
:1006A400C4540F4420C8834004F456800146F6DF46
:1006B400E4800B0102040810204080900A22E47EAA
:1006C400019360BCA3FF543F30E509541FFEE4933B
:1006D400A360010ECF54C025E060A840B8E493A302
:1006E400FAE493A3F8E493A3C8C582C8CAC583CA2D
:1006F400F0A3C8C582C8CAC583CADFE9DEE780BEE5
:010A61000094
:1002EB00BB010689828A83E0225002E722BBFE0211
:0902FB00E32289828A83E4932244
:10030400BC000BBE0029EF8DF084FFADF022E4CCDD
:10031400F875F008EF2FFFEE33FEEC33FCEE9DECA6
:10032400984005FCEE9DFE0FD5F0E9E4CEFD22EDEC
:10033400F8F5F0EE8420D21CFEADF075F008EF2F36
:10034400FFED33FD4007985006D5F0F222C398FD27
:050354000FD5F0EA22C4
:10035900E88FF0A4CC8BF0A42CFCE98EF0A42CFC43
:100369008AF0EDA42CFCEA8EF0A4CDA8F08BF0A4C1
:100379002DCC3825F0FDE98FF0A42CCD35F0FCEB20
:100389008EF0A4FEA9F0EB8FF0A4CFC5F02ECD39E5
:0F039900FEE43CFCEAA42DCE35F0FDE43CFC2252
:1003A80075F008758200EF2FFFEE33FECD33CDCC0C
:1003B80033CCC58233C5829BED9AEC99E58298408F
:1003C8000CF582EE9BFEED9AFDEC99FC0FD5F0D66C
:1003D800E4CEFBE4CDFAE4CCF9A88222B800C1B996
:1003E8000059BA002DEC8BF084CFCECDFCE5F0CBD4
:1003F800F97818EF2FFFEE33FEED33FDEC33FCEB0D
:1004080033FB10D703994004EB99FB0FD8E5E4F9C7
:10041800FA227818EF2FFFEE33FEED33FDEC33FCB4
:10042800C933C910D7059BE99A4007EC9BFCE99AA8
:10043800F90FD8E0E4C9FAE4CCFB2275F010EF2FED
:10044800FFEE33FEED33FDCC33CCC833C810D707ED
:100458009BEC9AE899400AED9BFDEC9AFCE899F828
:0E0468000FD5F0DAE4CDFBE4CCFAE4C8F922BB
:1009DE00C2D5E830E70FB2D5E4C39BFBE49AFAE444
:1009EE0099F9E498F8EC30E717B2D5120A1412030D
:1009FE00E4E4C39BFBE49AFAE499F9E498F88003E3
:100A0E001203E430D50DE4C39FFFE49EFEE49DFD8A
:040A1E00E49CFC2236
:0E047600C3E49FFFE49EFEE49DFDE49CFC2297
:10048400EB9FF5F0EA9E42F0E99D42F0EC6480C8EF
:0604940064809845F0228F
:00000001FF
